:020000040800F2
:10280000C04D0020F12A0008918200080D740008D4
:102810008D820008314D0008E7B20008000000007A
:10282000000000000000000000000000252A000851
:102830006950000800000000692A00083D9B00085C
:102840000B2B00080B2B00080B2B00088D920008A7
:102850000B2B00080B2B00080B2B00080B2B000880
:102860000B2B00080B2B00080B2B00080B2B000870
:102870000B2B00080B2B00080B2B00080B2B000860
:102880000B2B00080B2B00080B2B00080B2B000850
:102890000B2B00080B2B00080B2B00080B2B000840
:1028A0000B2B00080B2B00080B2B00080B2B000830
:1028B000AD9B0008399C00080B2B00080B2B00086F
:1028C0000B2B00080B2B00080B2B00080B2B000810
:1028D0000B2B00085DA00008E1A000080B2B0008EE
:1028E000E56200080B2B00080B2B000800F002F833
:1028F00000F078F80AA090E8000C82448344AAF122
:102900000107DA4501D100F06DF8AFF2090EBAE81F
:102910000F0013F0010F18BFFB1A43F00103184713
:10292000E0D3000000D400000A444FF0000C10F87F
:10293000013B13F0070408BF10F8014B1D1108BF3D
:1029400010F8015B641E05D010F8016B641E01F8DD
:10295000016BF9D113F0080F1EBF10F8014BAD1C2D
:102960000C1B09D16D1E58BF01F801CBFAD505E04B
:1029700014F8016B01F8016B6D1EF9D59142D6D3A5
:10298000704700000023002400250026103A28BFCD
:1029900078C1FBD8520728BF30C148BF0B607047D1
:1029A00066290DF0A480642900F03481782900F0B4
:1029B0006D81732900F04187002070471FB500F03A
:1029C00014FB01F00BF80400002000210CF0F4F8D7
:1029D000401C6060002000210CF0D8F8E0601FBDB2
:1029E00010B510BD01F00CFB1146FFF7E7FF09F031
:1029F000CDFA01F02AFB03B4FFF7F2FF03BC08F0A5
:102A00008FFC0000EFF30980704780F3098870475E
:102A1000EFF30880704780F30888704740BA70472A
:102A2000C0BA7047224B19680868B0E8F00F80F30D
:102A30000988BFF36F8F4FF0000080F311884EF0CC
:102A40000D0E70470000000006480068006880F323
:102A5000088862B661B6BFF34F8FBFF36F8F00DF98
:102A600000BF00BF08ED00E0EFF30980BFF36F8FF8
:102A70000F4B1A6820E9F00F106008B54FF05000B6
:102A800080F31188BFF34F8FBFF36F8F0AF0D4FF2D
:102A90004FF0000080F31188BDE80840196808680D
:102AA000B0E8F00F80F30988BFF36F8F704700BF65
:102AB00074000020EFF30580704700000B49D1F847
:102AC00000C04A685CF8043B1068184442F8040BE4
:102AD0008C4528BFA1F1DC0C8A4228BFA1F1DC02A1
:102AE000C1F800C04A6020F0004070475447002001
:102AF0000948804709480047FEE7FEE7FEE7FEE792
:102B0000FEE7FEE7FEE7FEE7FEE7FEE704480549CD
:102B1000054A064B704700004D9B0008ED28000851
:102B2000C0470020C04D0020C0490020C0490020FF
:102B3000704700000FB4044910B503AA029800F0D2
:102B400081FE10BC5DF814FB480000200FB41CB5DA
:102B5000074B06AA7B4469460090059800F043FEA7
:102B60000020694600F052FE1CBC5DF814FB00001A
:102B7000B50C000070B5044685690068C10601D532
:102B8000302600E02026C00707D070BDD4E901211F
:102B900030469047206A401C20626D1EF6D570BDFD
:102BA00070B5044685690078C00707D170BDD4E9C7
:102BB000012120209047206A401C20626D1EF6D51E
:102BC00070BD70B50C460546012A05D028788006F0
:102BD00000D5EA69002302E0012305E05B1C934273
:102BE00002D2E05C0028F9D1A869E618C01AA861F1
:102BF000286A184428622846FFF7BCFF04E0D5E99C
:102C0000012114F8010B9047B442F8D32846FFF78E
:102C1000C7FF70BD2DE9F0410646002410687529F4
:102C2000314616A510D0AFF30080002802DA4042EA
:102C300013A507E031688A0701D512A502E049070C
:102C400004D511A5012401E0AFF3008000210A2280
:102C500006F1240709E0B0FBF2FCB0FBF2F302FB43
:102C60001C00303078541846491C0028F3D1234604
:102C70002A463046BDE8F04100F048BB00000000A5
:102C80002D0000002B0000002000000070B504465D
:102C90000D4621461068AFF300802188090502D552
:102CA0000F4A7A4402E00E4A7A440E32002104F1BF
:102CB000240305E000F00F060009965D5E54491CF0
:102CC0000028F7D120780023000704D5702D02D00A
:102CD00009B1022311322046BDE8704000F016BB56
:102CE00064CE00002DE9F05F894604464FF0000AEB
:102CF000DFF824B1FB44C0F820A02046E1688847F3
:102D000000287DD0252806D0D4E901219047206AEB
:102D1000401C2062F1E700255F462046E1688847B5
:102D20002028064607DB312E05D2B81910F8200CF2
:102D300008B10543F1E7A80701D525F00405C4F85B
:102D40001CA00027C4F818A02A2E09D0304608F08D
:102D5000E0FA38B304EB8708303EC8F8186019E091
:102D600059F8041B204604EB87029161E16888470B
:102D7000012F064618D1E069002820DA25F0200549
:102D80001DE0D8F8180000EB800006EB400030385A
:102D9000C8F818002046E1688847064608F0B9FAE6
:102DA0000028EED1012F0AD02E2E08D12046E1684E
:102DB00088477F1C0646022F45F02005C4DBA0692A
:102DC000002803DA404245F00105A061E80701D080
:102DD00025F01005A6B1A6F14100192802D8203629
:102DE00045F400654A463146204625604D46FFF7CA
:102DF000D7FD60B1012807D0ED1D25F0070000E0E8
:102E000007E000F1080978E705F1040975E73046A5
:102E10007AE7206ABDE8F09F3ACE00000FB400B513
:102E20008DB010A9099000910B904FF0FF300A90DF
:102E300000200C90064878440690064878446A467C
:102E400007900F9909A800F023FD0DB05DF814FB61
:102E5000770A00008F0A00002DE9FF5F1D464FF042
:102E6000FF3B91464FF000085F46D5E90146A9694E
:102E700001987F1C8847296A824688470028F6D136
:102E8000BAF1FF3F0CD0002E24F4C06419DD6006B7
:102E900014D5BAF12B0F09D0BAF12D0F0ED103E0E2
:102EA000584604B0BDE8F09F44F48064A9690198D5
:102EB0007F1C8847761E8246002E02DDBAF1300F55
:102EC00003D0B9F1000F26D032E0A969761E01982F
:102ED0007F1C44F400748847002E824605DDBAF159
:102EE000780F06D0BAF1580F03D0B9F1000F10D007
:102EF0001EE0B9F1000F02D0B9F1100F18D1A96985
:102F0000761E01987F1C24F40074884782461020A6
:102F100002E0082000E00A20814609E0A96908FBD8
:102F20000908761E01987F1C44F400748847824685
:102F3000002E05DD4946504600F096FC0028EDDAEB
:102F4000E96901988847A00502D46FF00100A8E75D
:102F5000E00725D1600613D5600502D5C8F1000051
:102F600000E0404629680A1D2A600968220501D54B
:102F7000087015E0220701D5088011E008600FE015
:102F80002868011D29600068210502D580F80080AD
:102F900006E0210702D5A0F8008001E0C0F800801B
:102FA00038467EE770B5064600F0ACF90468054681
:102FB00030460A22002100F09BFC2C6070BD00000E
:102FC0000B4910B5A1F17C020A4CC2E93712372136
:102FD00006E000EB104342F82130074B00FB0340B2
:102FE0000B1EA1F10101F4DC10BD0120E8E7000097
:102FF000F4460020E119D666CD0D0100401ECAB28C
:1030000010F8011F8A4202D00029F9D10020704730
:1030100030B505460B462A4613F8014B12F8010B52
:1030200008B1A042F8D01CB1002802D06D1CF1E715
:10303000284630BD40EA0103024630B59B0710D157
:103040004FF0013400E008C208C91D1B9D4315EA7A
:10305000C41FF8D013F0FF0102F8011B0DD01B0AAA
:10306000F8E711F8013B002B02F8013B05D011F8FD
:10307000013B002B02F8013BF3D130BD10B5431CDE
:1030800002E010F8011B71B18107FAD14FF0013253
:1030900002C88C1A8C4314EAC211F9D0C01A0A066D
:1030A00003D0C01E10BDC01A10BD0A0401D0801E7E
:1030B00010BD0902FCD0401E10BD40EA010370B5EE
:1030C0009B072ED14FF00136042A2AD308C810C915
:1030D0009D1B9D43121F15EAC61517D0D8B2E1B249
:1030E000401A50EA056110D198B2A1B2401A50EAD4
:1030F00005410AD123F07F4024F07F41401A50EA75
:10310000052102D1180EA0EB146070BDA342DBD0E4
:1031100018BA21BA884201D9012070BD4FF0FF30A2
:1031200070BD0AB9002070BD10F8013B11F8014BC9
:1031300063B1A3420AD1521E08D010F8013B11F826
:10314000014B1BB1A34201D1521EEDD1181B70BD22
:10315000032A40F2308010F0030C00F0158011F8C3
:10316000013BBCF1020F624498BF11F801CB00F89B
:10317000013B38BF11F8013BA2F1040298BF00F8EF
:1031800001CB38BF00F8013B11F0030300F0E883E6
:10319000083AC0F0088051F8043B083A51F804CBD3
:1031A000A0E80810F5E7121D5CBF51F8043B40F899
:1031B000043BAFF30080D20724BF11F8013B11F8A4
:1031C00001CB48BF11F8012B24BF00F8013B00F8E8
:1031D00001CB48BF00F8012B704702F0FF0343EA20
:1031E000032242EA024200F002B84FF00002042932
:1031F000C0F0128010F0030C00F01B80CCF1040C26
:10320000BCF1020F18BF00F8012BA8BF20F8022B59
:10321000A1EB0C0100F00DB85FEAC17C24BF00F8FF
:10322000012B00F8012B48BF00F8012B70474FF02D
:10323000000200B5134694469646203922BFA0E806
:103240000C50A0E80C50B1F12001BFF4F7AF090712
:1032500028BFA0E80C5048BF0CC05DF804EB890003
:1032600028BF40F8042B08BF704748BF20F8022B46
:1032700011F0804F18BF00F8012B70474FF0013C50
:1032800050F8042B51F8043B9A4221D1A2EB0C03D5
:10329000934313EACC1317D150F8042B51F8043B95
:1032A0009A4215D1A2EB0C03934313EACC130BD132
:1032B00050F8042B51F8043B9A4209D1A2EB0C03BD
:1032C000934313EACC13DBD04FF00000704700BFEC
:1032D000D01A01BAB1FA81F101F0180122FA01F015
:1032E000CB40C1F12001DBB2C0B2C01A2CFA01F30D
:1032F000D11A914311EAC311E6D170477047704764
:1033000070477047004870475C4700202DE9F04740
:103310000D4699469246044600F124080168880645
:1033200004D5E06921F01001216000E00120A842ED
:1033300001DD471B00E00027A1697A1902EB0900B3
:10334000081AA0612078C00602D42046FFF712FCBC
:10335000002608E0D4E901211AF806009047206A07
:10336000401C761C20624E45F4DB2078C0060AD54E
:103370002046FFF7FFFB06E0D4E90121302090470B
:10338000206A401C2062381EA7F10107F4DC07E028
:10339000D4E9012118F805009047206A401C2062FA
:1033A000281EA5F10105F3DC2046FFF7F9FB207884
:1033B000000602D50220BDE8F0870120FBE7704738
:1033C0002DE9FF4F0C461E464FF0FF378BB0D2E978
:1033D0000001DDF860800A908A46C1F30A5505B9FC
:1033E0003D46002108464FF00000BAF1000F00F4FE
:1033F000400005DA00EB80004FF4400101EA500084
:103400004FEA9059B9F1010F00DDB9460A9850EA28
:103410004A000ED044F61050A5F2FF3545432F1454
:10342000B8F1000F1ED07542291E1EDDC9F1000241
:103430001CE0B8F1010F4FF0000001D0302103E093
:10344000F24305E02154401CB042FBDB3046002231
:10345000002121540B99C1F80880C1E900200FB068
:10346000BDE8F08FBD1B6D1CDEE74A4600DA6942FD
:1034700006A800F04FFD06AB93E8070003AB83E816
:10348000070050460A9900F0E9FD8DE80700A0F515
:1034900000501F3800900398002D0ADD42F21F01F2
:1034A0004A460844002303A90390684601F052F8F5
:1034B00009E0A0F500504A461F38002303A90390F5
:1034C000684601F05CF88DE807000004000C03D0AA
:1034D0004FF0FF30410800E01046B8F1000F03D074
:1034E0000022009215461EE0751E05D400F07AFAFF
:1034F000303262556D1EF9D5B3460122084302D021
:1035000000227F1C04E02078302801D100227F1E99
:10351000002A099784D01DE0112D07DA00F062FA25
:10352000303262556D1C50EA0102F5D1084302D0D9
:103530000098C8B10EE00021681E05E0235C625CC3
:1035400063542254401E491C8142F7DBAB46A81B42
:10355000401E0990002004F80B000B98099AC0F84F
:103560000880C0E9002B7AE711264FF0000857E7E2
:103570002DE9F04F88460446D21D22F0070191B094
:10358000D1E90001CDE90A0107F0AFFE02460B9830
:10359000C00F01D02D2007E02068810701D52B2026
:1035A00002E0202101EAC000032A099001D0072A85
:1035B00005DB03464146204600F062FA0BE1207825
:1035C000800601D5E06900E00620B8F1650F81466C
:1035D00006D0B8F1660F18D0B8F1670F70D131E09E
:1035E0000020B9F1110F009001DB112301E009F176
:1035F00001030AAA01A90CA8FFF7E2FEDDE90C709D
:10360000002609F10105834647E001204B46009062
:103610004FF000470AAA01A90CA8FFF7D1FEDDE987
:103620000DB00C995D46002610B909F101000D1886
:10363000B9EB050003D4C0F1FF3609F10105A5EB94
:1036400009002BE0B9F1010F01DA4FF00109002068
:10365000B9F1110F0090484601DD112300E0034647
:103660000AAA01A90CA8FFF7ABFEDDE90C704D46D4
:1036700000268346207800070AD4AB4500DA5D4671
:1036800001A8012D04DD411911F8011C302907D0D2
:103690004F4502DA17F1040F04DA012082460FE0E9
:1036A0006D1EEEE7002F02DCED1B3E4403E0781CAC
:1036B000A84200DD7D1CB81B00F1010A4FF0004755
:1036C0002078000703D4AA4501DB4FF0FF3A002120
:1036D000B7F1004F0DF143088DF8431024D00220BC
:1036E0002B23002F01DA7F422D230A21021EA0F195
:1036F000010000DC5FB197FBF1FC97FBF1F201FBED
:103700001C7C17460CF1300C08F801CDEEE7A8F14F
:10371000010003702188090501D5452100E06521DC
:10372000A0F1010800F8011C09980FA9A1EB0807F6
:10373000FF1D00B10120411901EBEA70A169384475
:10374000081A401EA0612078C00602D42046FFF768
:1037500011FA099828B1D4E901219047206A401C48
:1037600020622078C00622D52046FFF703FA1EE02B
:10377000002E04DBB34502DD01A8805D00E03020AF
:10378000D4E901219047206A401C2062761CAAF1EE
:1037900001005FEA000A0AD100F020F9C068016860
:1037A000405CD4E901219047206A401C2062281E19
:1037B000A5F10105DCDC07E0D4E9012118F8010BD3
:1037C0009047206A401C2062381EA7F10107F3DCF5
:1037D0002046FFF7E5F9032011B041E601694A1CD4
:1037E00002610878704700B58FB0CDE90131002142
:1037F000059105497944CDE9031011466846FFF764
:1038000071FA0FB000BD0000E5FFFFFF0A6802F883
:10381000010B0A60704710B5436913B1AFF3008024
:1038200001E0FFF7CEF9012010BD127800F124016C
:103830000A7000224A700122EDE711684FF0FF3252
:10384000E9E70000074B70B50D467B44FFF7CBFF5F
:103850000446284600F0D0FB10B14FF0FF3070BD99
:10386000204670BDEF7B00003A2800D2303820F0AF
:103870002002412A01D3A2F13700884201D34FF040
:10388000FF30704702681144137801601846704792
:10389000D16005497944516104497944116200219C
:1038A0001161114600F02CB9EDFFFFFFD1010000BE
:1038B000426842B1016811F8013B23B1521EC0E9D0
:1038C0000012184670470121C160881E7047426887
:1038D0005AB1C368016843B983688B4205D0491E59
:1038E000521CC0E90012002070474FF0FF307047B3
:1038F0002DE9F04791460F4680460446002614F80D
:10390000015B2DB100F062F80068405DC007F6D1A0
:103910002B2D02D02D2D18D0641E4A463946204644
:1039200000F0A8FA27B13968A14201D1C7F8008098
:103930004FF0020471050BD54042002803DDFFF76C
:10394000E1FC0460A007BDE8F08746F48066E4E788
:103950000028F8DAFFF7D6FC04606FF00040F2E7C9
:1039600010B5203AC0F00B80B1E81850203AA0E81A
:103970001850B1E81850A0E81850BFF4F5AF5FEA4E
:10398000027C24BFB1E81850A0E8185044BF18C901
:1039900018C0BDE810405FEA827C24BF51F8043BA8
:1039A00040F8043B08BF7047D20728BF31F8023BFC
:1039B00048BF11F8012B28BF20F8023B48BF00F890
:1039C000012B7047004870475C47002010B500F09D
:1039D00005F8001D10BD00BFE1B1000000487047B0
:1039E0007C47002030B5B0F10A024FEA900E71F129
:1039F00000034EEA817EB0EB0E0061EB91014FEACD
:103A0000101E4EEA017E10EB0E0041EB11114FEA41
:103A1000102E4EEA016E10EB0E0041EB11214FEA21
:103A2000104E4EEA014E10EB0E0041EB11414018D2
:103A300041F100014FEAD00040EA41704FEAD10164
:103A400010EB80054FEA810444EA907444EB0104D2
:103A50006D1944EB0404521BA3414FF0000348BF0F
:103A60000A3200D530BD401C41F1000130BD10B517
:103A70000446FFF7ABFF0068005D00F0010010BDD9
:103A80002DE9F0411F46044603260168072A01F488
:103A9000006004DB08B116A505E016A503E008B137
:103AA00015A500E015A521F010002060A069C01E3A
:103AB000A0610FB1401EA0612046FFF75BF84FB137
:103AC000D4E9012138469047206A401C2062C01C7E
:103AD000206206E0206AFAE7D4E9012115F8010B1B
:103AE0009047761EF8D22046FFF75AF8BDE8F081DD
:103AF0004E414E006E616E00494E4600696E660092
:103B00002DE9F34F4FF0000A0C4656468DB00120C8
:103B10000C9001F10C000B9062690B980121904709
:103B2000051E2DD0252D2CD0216A8847C0B1626991
:103B30000B9801219047216A88470028F7D16269D4
:103B4000411E0B98904700E0761CA1690D988847AC
:103B5000216A88470028F7D1E1690D988847DBE79B
:103B6000A1690D988847A842074601D1761CD3E782
:103B7000E1690D9888477F1C02D1BAF1000F6FD020
:103B80006CE162690B9800273D46394690472A2828
:103B900004D162690B98012190470125DFF8D0829A
:103BA00062690B9801219047A0F130010A290AD2DD
:103BB0004745E5DC07EB870100EB4107303FDFD4E9
:103BC00045F01005ECE7E90601D46FF000476C28DA
:103BD0000AD04C2814D0682815D06A280DD0742833
:103BE0001CD07A281AD01DE062690B9801219047F9
:103BF0006C2802D045F0040514E045F002050DE004
:103C000045F020050AE062690B9801219047682879
:103C100002D045F0080505E045F4006562690B989F
:103C200001219047C4E9015765283DD019DC582887
:103C30007AD00CDC452837D004DC252826D0412852
:103C40009ED131E046282FD0472899D12CE05B281F
:103C500077D0612828D063287CD0642823D15AE00B
:103C6000F7E06F2848D008DC66281DD067281BD0F5
:103C7000692821D06E2816D127E0702845D07328F6
:103C800068D0752847D078280DD14DE0A1690D98EE
:103C90008847252805463FF469AFE1690D988847B4
:103CA0006D1C3FF46AAFD9E00D9923466A466FF068
:103CB0000100AFF30080C6E045F0400023464FF01E
:103CC00000026060A80736D43EE0E8077FF447AF03
:103CD0002068011D21600068290501D506701BE7D9
:103CE000290701D5068017E7A90703D5F117C0E911
:103CF000006111E706600FE745F0400023464FF0F2
:103D000008026060A80716D41EE040F60E0125EAFE
:103D10000100606016E045F0400023464FF00A02C3
:103D20006060A80707D40FE045F040006060A80776
:103D300008D5234610220D996FF00100AFF30080E3
:103D400081E007E0102223460D996FF00100FFF794
:103D500083F878E04FF0000963284F46C8464B4689
:103D6000CB4602D05B2807D039E02079C00601D4C9
:103D70000120A060012732E06269D4F80CB00B98F2
:103D8000012190475E2807D14FF001094946626939
:103D9000D4F80CB00B989047216939B900210A4634
:103DA00003AB43F82120491C0829FADBD8B3216969
:103DB00049B308F1010862690B98012190475D2819
:103DC000F4D1B9F1000F09D0002003A951F8202047
:103DD000D24341F82020401C0828F7DB03AB2069C0
:103DE000002820794FEA40701ED05B462246CDF86D
:103DF0000080CDE901970D9900286FF0010020DACD
:103E0000AFF300801FE0C11703AA00EBD1614B1193
:103E100021F01F0102EB8302411A13680120884040
:103E200003431360C7E719E00D99224600286FF09D
:103E30000100009702DAAFF3008004E0AFF30080E6
:103E400001E0AFF3008000280ADA401C06D10C988C
:103E500020B14FF0FF300FB0BDE8F08F5046FAE7C9
:103E6000E90701D10AF1010A064400200C9053E64B
:103E7000CCCCCC0C2DE9F05F824615468B46002752
:103E80000AF10104B9460078302801D09DB113E051
:103E900014F8010B0127782803D0582801D045B128
:103EA0000AE00DB1102D07D1002714F8010B1025E1
:103EB00002E0082500E00A250026B0460EE005FBDA
:103EC000080005FB06F101271FFA80F801EB1046F8
:103ED000B6F5803F00D3B94614F8010B2946FFF729
:103EE000C3FC0028EBDABBF1000F05D00FB1641E54
:103EF00000E05446CBF80040B9F1000F06D0FFF7C0
:103F000001FA02210160C81EBDE8F09F48EA0640A0
:103F1000FAE700002DE9F047814616468AB0354899
:103F200078440DC88DE80D0032487844801C03ACFD
:103F30000DC884E80D0041F69B300844372190FB02
:103F4000F1F290FBF1F5A5F1800501FB12041B3C99
:103F500002D56442012000E00020DFF898A08046EE
:103F60000027FA44AAF1BE0A0EE0E0070AD0324662
:103F7000684607EB470101230AEB810100F0FFFAD5
:103F80008DE8070064107F1C002CEED1194F7F4490
:103F9000AE3F19E0E80715D007EB04100DF1180A41
:103FA00090E80E008AE80E00C068F04201D198192E
:103FB00008903246012306A903A800F0E0FA03ABFB
:103FC00083E807006D10641C002DE3D14FF001035E
:103FD00032466946B8F1000F03A802D000F0BAFAE1
:103FE00001E000F0CCFAC9E90001C9F808200AB0E4
:103FF000BDE8F0879CBC0000007B00F080007047AB
:104000007546FFF7DFFCAE4605006946534620F0D3
:104010000700854618B020B5FEF778FDBDE82040C2
:104020004FF000064FF000074FF000084FF0000B74
:1040300021F00701AC46ACE8C009ACE8C009ACE827
:10404000C009ACE8C0098D46704710B50446AFF30F
:1040500000802046BDE81040FEF7CDBC5FEA400C72
:1040600008BF91F0000F4FEA8C234FEAC12243EAC8
:1040700051514FEA1C5018BF00F5F0404FEA300094
:1040800018BF41F000415FEA6C5C00F02980BCF190
:10409000FF3F08BF40F080407047130C06BF12047A
:1040A0004FF0100C4FF0000C130E04BF12020CF175
:1040B000080C130F04BF12010CF1040C930F04BF82
:1040C00092000CF1020CD30F04BF52000CF1010C52
:1040D00011464FF00002A0F11F00A0EB0C0070474A
:1040E00011F0004F08BF704731F000413FF4D5AFE9
:1040F0000B0C06BF09044FF0100C4FF0000C0B0E18
:1041000004BF09020CF1080C0B0F04BF09010CF1EC
:10411000040C8B0F04BF89000CF1020CCB0F04BF01
:1041200049000CF1010CCCF12003A0EB0C0022FAA9
:1041300003F302FA0CF241EA030100F101007047B7
:1041400020F07F4C80EA030023F07F47ACEB0703AD
:1041500003F57C5300F0004003F1FF032DE9804993
:104160004FEA154B09B44FEA144325EA0B4E24EAF3
:1041700003480FF2042606EB132749083E785FEA4E
:10418000320203FB0667C7F5000707FB06F64FEA96
:1041900054374FEAD64606F1020607FB066CCCF10F
:1041A000005C4FEA1C472CEA074C07FB06F40CFBAB
:1041B00006F504EB15464FEA961634BF00204FF083
:1041C00000404FEAD13706FB07FC4FEA1C4C0CFBC2
:1041D0000BF7D21B03FB0CF761EB07010CFB0EF78F
:1041E000B0EB074072EB17420CFB08F734BFA2EBB1
:1041F0000742B2EB074261EB17414FEA0C444FEA2A
:10420000910706FB07FC4FEA1C4C0CFB0BF7B0EBCD
:10421000C74072EB573203FB0CF734BFA2EBC74227
:10422000B2EBC74261EB57310CFB0EF7B0EBC700A6
:1042300072EB57720CFB08F734BFA2EBC702B2EB6C
:10424000C70261EB5771039F4FEA816141EA921106
:1042500004EBCC044FEAD1374FEA826206FB07FC3D
:1042600042EA90124FEA80604FEA1C4C0CFB0BF7BD
:10427000D21B03FB0CF761EB07010CFB0EF7B0EB55
:10428000074072EB17420CFB08F734BFA2EB074262
:10429000B2EB074261EB17414FEA8C554FEA9107A9
:1042A00004EB9C2406FB07FC4FEA1C4C0CFB0BF7B1
:1042B000B0EBC74072EB573203FB0CF734BFA2EBF5
:1042C000C742B2EBC74261EB57310CFB0EF7B0EBC4
:1042D000C70072EB57720CFB08F734BFA2EBC702A2
:1042E000B2EBC70261EB577115EB4C254FEA8161C8
:1042F00041EA92114FEA82624FEAD13742EA9012C4
:1043000006FB07FC44F100044FEA80604FEA1C4CB6
:104310000CFB0BF7D21B03FB0CF761EB07010CFB4B
:104320000EF7B0EB074072EB17420CFB08F734BFF7
:10433000A2EB0742B2EB074261EB174115EB1C15EC
:104340004FEA813141EA92414FEA823242EA904299
:104350004FEA80304FEA0C7644F1000448EA034308
:104360004EEA0B484FF0000EB2EB080C71EB03075E
:1043700024BF624639464EEB0E0E4FF0000B00187C
:10438000524149414BEB0B0BB2EB080C71EB0307AD
:104390007BF1000B24BF624639464EEB0E0E4FF008
:1043A000000B0018524149414BEB0B0BB2EB080CD0
:1043B00071EB03077BF1000B24BF624639464EEBDD
:1043C0000E0E51EA020718BF46F0010616EB0E76F4
:1043D00055F1000254F1000103D5BDE88901BDE8A3
:1043E0000088BDE88901BDE80048B619524141EB9B
:1043F0000101A3F10103704780807F7E7D7C7B7A81
:104400007978777676757473727171706F6E6E6D80
:104410006C6C6B6A6A696868676666656464636326
:1044200062616160605F5F5E5E5D5D5C5C5B5B5AAC
:104430005A59595858575756565555555454535319
:1044400052525251515050504F4F4F4E4E4D4D4D74
:104450004C4C4C4B4B4B4A4A4A49494948484847BF
:1044600047474746464645454544444444434343FD
:104470004342424242414141002B9C4630D47700A6
:104480002BD01CB54FEA370703B44FF010004FF0A4
:104490001001BAF1000F06D0BCF1000FDCBF40F0F4
:1044A000080040F008014FF000000FBCBDE81040CC
:1044B0000BF1010BBBF1010F08BF5FEA170722BF29
:1044C00012F1010211F101014FF0004143F100032B
:1044D00000F0004043EA00007047F9D35708D0E7E6
:1044E00046EA064613F1400F4FEA16461FDD13F168
:1044F000200FDFBF16430A46002120335B42BED0A7
:10450000C3F1200746EA064602FA07F74FEA1646C5
:1045100046EA0706C3F1200722FA03F201FA07F779
:1045200021FA03F14FF0000342EA0702A7E746EA47
:10453000020646EA06464FEA164646EA0106BCBFB0
:1045400046EA0646360C4FF000034FF000024FF0EB
:10455000000194E72DE9804C9A46934670B491E8A7
:10456000380007C831EA400C48BF34EA430C03D591
:10457000FFF7E6FDFFF780FFF0BCBDE8008C2DE9FA
:10458000804C9A46934670B491E8380007C810F002
:10459000804F08BF13F0804F03D100F005F8FFF7FC
:1045A0006BFFF0BCBDE8008C20F07F4780EA030081
:1045B00023F07F4C07EB0C03A3F57C5300F0004085
:1045C000A3F1FE0392F0000F00F0B38095F0000F0E
:1045D00000F077802DE901494FEA11404FEA144677
:1045E00021EA004800FB06FC24EA064708FB06F621
:1045F00007FB08F800FB07F718EB06484CEB164CD6
:104600004FEA124B18EB07484FEA15464CEB1740A0
:1046100022EA0B4E0BFB06FC25EA06470EFB06F6CC
:1046200007FB0EFE0BFB07F71EEB064E4CEB164C82
:104630004FF000061EEB074E4CEB174B18EB0B0828
:1046400040F1000018EB0E0B58EB000840F10000A1
:104650008F1A4FF000013CBFC943661B14BFB5EB76
:10466000040C00213CBFC943F61B4FEA17444EEA35
:104670008E0E27EA04454FEA1C4704FB07622CEA2A
:10468000074C05FB07F70CFB05F604FB0CFC16EBCF
:10469000074642EB174216EB0C4642EB1C421BEB63
:1046A000060658EB0202414146EA9E0601D5BDE8E6
:1046B0000189B619524141EB0101A3F10103BDE8A3
:1046C00001894FEA14454FEA114724EA054621EAD9
:1046D000074C05FB07F406FB07F70CFB06F105FB8F
:1046E0000CFC11EB074144EB17444FEA124711EB66
:1046F0000C4144EB1C4422EA074C05FB07F206FB85
:1047000007F70CFB06F605FB0CFC16EB074642EB25
:10471000174216EB0C4642EB1C456A1854F1000197
:1047200048BF7047B619524141EB0101A3F10103A3
:10473000704795F0000F37D04FEA11424FEA144707
:1047400021EA024624EA074C02FB07F106FB07F7C1
:104750000CFB06F402FB0CFC14EB074441EB174185
:104760004FEA154714EB0C4441EB1C4125EA074C7A
:1047700002FB07F506FB07F70CFB06F602FB0CFC39
:1047800016EB074645EB174516EB0C4645EB1C426E
:10479000121951F1000148BF7047B619524141EB5F
:1047A0000101A3F1010370474FEA14454FEA114795
:1047B00024EA054621EA074C05FB07F106FB07F74B
:1047C0000CFB06F24FF0000605FB0CFC12EB074257
:1047D00041EB174112EB0C4251EB1C4148BF7047B3
:1047E000921841EB0101A3F10103704721B18268E6
:1047F00042F00102826003E0826822F001028260DE
:104800007047000010B504461248844208D10121C7
:10481000401504F0ADFA0021601504F0A9FA17E084
:104820000D48844208D10121001504F0A1FA0021AD
:10483000201504F09DFA0BE00848844208D10121BC
:10484000C80304F095FA00214FF4004004F090FAF8
:1048500010BD00000024014000280140003C014040
:10486000014600208A6802F004020AB1012000E03B
:10487000002070470146C86C80B270470246002095
:1048800013680B400BB1012000E000207047014687
:1048900000208A6802F008020AB1012000E000202E
:1048A0007047000030B502460020002350680F4CCE
:1048B00020400D790C6844EA05242043506090683C
:1048C0000B4C2040D1E902542C434D7944EA450475
:1048D00020439060D06A20F470000C7C641EE4B227
:1048E000234340EA0350D06230BD0000FFFEF0FFDA
:1048F000FDF7F1FFF0B504460D4600200021092D1B
:1049000011DDE068A5F10A0606EB4607072606FA60
:1049100007F18843A5F10A0606EB460603FA06F1FD
:104920000843E0600CE0206905EB4507072606FA1E
:1049300007F1884305EB450603FA06F108432061B9
:10494000072A0FDA606B561E06EB86071F2606FA4B
:1049500007F18843561E06EB860605FA06F1084362
:10496000606322E00D2A0FDA206BD61F06EB860764
:104970001F2606FA07F18843D61F06EB860605FABE
:1049800006F10843206310E0E06AA2F10D0606EB91
:1049900086071F2606FA07F18843A2F10D0606EBEB
:1049A000860605FA06F10843E062F0BD816841F031
:1049B00008018160704721B1826842F4A0028260E0
:1049C00003E0826822F4A00282607047816841F0AF
:1049D000040181607047000030B10749096841F463
:1049E0000001054A116005E00349096821F400014E
:1049F000014A1160704700000824014070B5054667
:104A00000E46002406E0291988B2002100F05FF864
:104A1000601C84B2B442F6DB70BD10B502F0BAFD82
:104A200010BD70B506460C46154608E03046721CAF
:104A300096B200F007F804F8010B681E85B2002D4D
:104A4000F4D170BD70B50446002602F057FE25462D
:104A5000E11704EB11610912A02202EB4101C8B277
:104A600002F012FE02F096FEE11704EB116109124A
:104A7000A4EB0121C8B202F007FE02F08BFE02F0A7
:104A80003DFEA12002F000FE02F084FE002002F0B4
:104A9000C3FD064602F058FE304670BD10B540F228
:104AA000FF1001F0FDFA044610BD70B505460C4636
:104AB000164606E02178284600F009F8681C85B201
:104AC000641C301EA6F101018EB2F3D170BD70B529
:104AD00004460E4602F012FE2546E11704EB116172
:104AE0000912A02202EB4101C8B202F0CDFD02F092
:104AF00051FEE11704EB11610912A4EB0121C8B2C8
:104B000002F0C2FD02F046FE304602F0BDFD02F0AA
:104B100041FE02F019FE0A2006F04AFC70BD10B5F5
:104B2000044601214FF0C05004F002F9012004F0C6
:104B30000DF8204604F07CFC04F0A6FC10BD00003B
:104B40002DE9F84F04460D4616461F46DDE90A8951
:104B50000020009082466946384604F0A5FFE41C18
:104B600004F8035CD9F8000000BA44F8020C0A20EB
:104B700060803046FDF752FF60810098E06098FA4F
:104B800088F02061E41E164A3121164804F008F826
:104B9000144804F023F81349B1F80500FDF73EFF6F
:104BA0000D3000F0FF0A0E491039486800234FF617
:104BB000FF72194609F01EF952460A49012001F018
:104BC00085F907491039486800231A46194609F043
:104BD00051FA64210348FEF708FBBDE8F88F000096
:104BE000A00100205743002010B5012004F0D0F8A8
:104BF000002004F0CDF810BD08B50146002000905B
:104C0000034800900098084400900098008808BD70
:104C1000006C004008B500220092044A0092009AFD
:104C200002440092009A116008BD0000006C004030
:104C30001CB500250026002749E025A0FDF77AFFD6
:104C40004FF6FF71012008F07BFA0446012C3CD19D
:104C500000F0D8FA04F0C2FA05463B352846FFF7C3
:104C60005EFF2846FEF7ACF941F6DC6320A223A1E3
:104C7000012000F01FFFFDF721FF214908600846D1
:104C80000021204B4FF49852CDE9001005211E4819
:104C9000FFF756FF1DA0FDF74DFF10E0701CC6B2D8
:104CA0002249086800231A46194609F0A3F8074666
:104CB000012F00D100264FF47A7008F03FFC0A2E35
:104CC000ECDB0026012000F0D1F902F09DFDB4E7F5
:104CD000404040404261636B47726F756E645F7421
:104CE00061736B2072756E6E696E67210D0A00002C
:104CF00033392E39382E35372E3937005544500088
:104D000028010020E800002057430020A3A4A3A40A
:104D1000A3A4A3A4A3A4B2E2CAD4B0FCB7A2CBCDEF
:104D2000B3C9B9A6A3A10D0A00000000900100209C
:104D300000BFFEE7FCB504460D464FF6FF7001903C
:104D400048F2050700200090002625E014F8010B2A
:104D500000906946684602F0FAFDBDF804009DF82F
:104D6000001080EA01200190002613E0BDF8040045
:104D700000F4004030B1BDF8040087EA400080B282
:104D8000019006E0BDF804004FF6FF7101EA400013
:104D90000190761C082EE9DB281EA5F10105D5D16E
:104DA00001A901A802F0BEFDBDF80400FCBD2DE97B
:104DB000FF5F0D4616461F46DDE90EA81C2007F0D2
:104DC000EFFE04461C212046FEF70FFA0520E41CE6
:104DD00004F8030C28BA44F8020C0F20FDF71EFE5D
:104DE00060803046FDF71AFE608138BAE0609AFABA
:104DF0008AF02061E41E414604F11700FEF71AF91B
:104E00004046FEF73BF900F10A0B594604F10D004C
:104E1000FFF790FFA4F80B004FF0000903E009F141
:104E2000010000F0FF09B9F11C0FF8DB1C2221463C
:104E3000009801F04BF8204608F088FABDE8FF9F83
:104E40002DE9F04107460D460D2007F0A9FE044666
:104E50000D212046FEF7C9F90220207028BAC4F8B7
:104E60000100002601E0701CC6B20D2EFBDB0D22F6
:104E70002146384601F02AF8204608F067FABDE8D6
:104E8000F081000010B50021034A116051604721F4
:104E9000312004F0A3FE10BD5800002021B10268AB
:104EA00042F00102026004E002684FF6FE731A400D
:104EB0000260704701684FF6FE72114001600021E8
:104EC000016041608160C1604B49884208D14A4914
:104ED0000839496841F00F01474A083A51608AE0B1
:104EE00045491431884208D143490839496841F09D
:104EF000F001414A083A51607DE03F49283188423B
:104F000008D13D490839496841F470613A4A083A84
:104F1000516070E038493C31884208D1364908393F
:104F2000496841F47041344A083A516063E03249BB
:104F30005031884208D130490839496841F470211C
:104F40002D4A083A516056E02B496431884208D115
:104F500029490839496841F47001274A083A5160E3
:104F600049E025497831884208D123490839496800
:104F700041F07061204A083A51603CE01F49884284
:104F800006D1011F096841F00F01021F116032E0D4
:104F90001A491431884208D11849091F096841F09B
:104FA000F001164A121F116025E014492831884289
:104FB00008D11249091F096841F470610F4A121F94
:104FC000116018E00D493C31884208D10B49091F96
:104FD000096841F47041094A121F11600BE007494A
:104FE0005031884207D10549091F096841F47021F1
:104FF000024A121F11607047080002400804024074
:1050000070B504460D4600212046FFF747FF2946AC
:10501000204600F027F801212046FFF73FFF70BD32
:105020000146486880B2704710B50022026847F612
:10503000F0739A430C6A8B6823430C6923434C69D1
:1050400023438C692343CC6923434C6A23438C6AF2
:1050500023431A430260CB6843600B6883604B684C
:10506000C36010BD41607047704700002DE9F041FA
:1050700004460027B8463749486800234FF6FF72B8
:10508000194608F0B7FE34A0FDF754FD224639A1B9
:105090003D48FDF75BFD21463CA0FDF74BFD3A483E
:1050A000FDF7ECFF3E4988600846008981B23D4823
:1050B000FFF7A6FF3A49086800234FF6FF723A4906
:1050C00008F098FE0746384938A0FDF733FD012F58
:1050D00034D13CA13448FDF79BFF06463AA1324843
:1050E000FDF796FF05461DE0B8F11E0F00D11CE04C
:1050F00008F1010000F0FF0806F014F928490868DB
:1051000000236422284908F075FE0746012F09D1C3
:105110002CA12548FDF77CFF06462BA12248FDF770
:1051200077FF05460EB9002DDED000BF1E4928A02E
:10513000FDF700FD06F0F6F806F002F905494868AB
:1051400000231A46194608F095FF27A0FDF7F2FC48
:10515000BDE8F081900100204543363030B9D8B128
:10516000D5C1B4BDD3BDD3CAD5D0C5BAC5C1BFA3FF
:10517000A10D0A0041542B5149434C4F53453D2545
:10518000642C31300D0A0000B8090020B9D8B1D51F
:105190002564BAC5C1B4BDD3A3A1A3A10D0A000063
:1051A000F0060020440002409B400020B9D8B1D551
:1051B000C1B4BDD35FB7A2CBCDCDEAB3C9A3BA25E5
:1051C000730D0A004F4B00004552524F5200000031
:1051D00041542B5149434C4F5345BBD8B8B4C3FC41
:1051E000C1EE3A25730D0A004543363030B9D8B1C7
:1051F000D5C1B4BDD3CACDB7C5D0C5BAC5C1BFA38B
:10520000A10D0A0070B50024002500263149486828
:1052100000234FF6FF72194608F0ECFD2EA0FDF7B3
:1052200089FC06F07FF806F08BF831A13348FDF7D2
:1052300001FF3248FDF722FF3149886008460089A6
:1052400081B23048FFF7DCFE2D49086800234FF695
:10525000FF722D4908F0CEFD0446012C29D12BA167
:105260002948FDF7D5FE054616E01E2E00D121E0A7
:10527000701CC6B206F056F82149086800234FF6A4
:10528000FF72214908F0B6FD0446012C04D11FA18C
:105290001D48FDF7BDFE0546002DE6D01D4A1EA1A6
:1052A0002846FDF7BBFD1B484038016C1DA0FDF7EB
:1052B00041FC00BF06F036F806F042F805494868A0
:1052C00000231A46194608F0D5FE1AA0FDF732FC55
:1052D00070BD000090010020676574204353515F4A
:1052E000BBF1C8A16D75746578A3A1A3A10D0A00D7
:1052F00041542B4353510D0A00000000B80900200F
:10530000F0060020440002409B4000202B435351F4
:105310003A000000800600202B4353513A202564B8
:105320002C00000067657420435351A3BA25640D17
:105330000A000000676574204353515FCACDB7C5AA
:105340006D75746578A3A1A3A10D0A0070B5002442
:10535000FA49486800234FF6FF72194608F04AFDE3
:10536000F7A0FDF7E7FBFDA1FE48FDF763FEFD4852
:10537000FDF784FEFC4988600846008981B2FB483D
:10538000FFF73EFEFAA0FDF7D5FBF74908680023BA
:105390004FF6FF72FB4908F02DFD0446012C7CD12D
:1053A000F9A1F848FDF734FE054611E005F0BAFF13
:1053B000ED49086800234FF6FF72F24908F01AFD24
:1053C0000446012C04D1F0A1EE48FDF721FE05466C
:1053D000002DEBD0EB49EDA0FDF7ACFB05F0A2FFF3
:1053E00005F0AEFFEDA1DF48FDF724FEDD48FDF737
:1053F00045FEDD4988600846008981B2DB48FFF739
:10540000FFFDD949086800234FF6FF72DD4908F017
:10541000F1FC0446012CC2D105F084FF05F090FF99
:10542000E0A1D048FDF706FECE48FDF727FECE49A5
:1054300088600846008981B2CC48FFF7E1FDCA497F
:10544000086800234FF6FF72CE4908F0D3FC0446EB
:10545000012CA4D1CB49D6A0FDF76CFB05F062FF6F
:1054600005F06EFFD7A1BF48FDF7E4FDBD48FDF78D
:1054700005FEBD4988600846008981B2BB48FFF738
:10548000BFFDB949086800234FF6FF72BD4908F017
:10549000B1FC0446012CBED100E07EE205F042FFE3
:1054A00005F04EFFC9A1AF48FDF7C4FDAD48FDF7BB
:1054B000E5FDAD4988600846008981B2AB48FFF739
:1054C0009FFDA949086800234FF6FF72AD4908F017
:1054D00091FC0446012C9ED1BFA1AA48FDF798FD7E
:1054E000054611E005F01EFF9F49086800234FF6AE
:1054F000FF72A44908F07EFC0446012C04D1B6A139
:10550000A048FDF785FD0546002DEBD005F00AFF0C
:1055100005F016FFB4A19348FDF78CFD9148FDF707
:10552000ADFD914988600846008981B28F48FFF738
:1055300067FD8D49086800234FF6FF72914908F016
:1055400059FC0446012C84D1AAA18E48FDF760FDC8
:105550000546ABA18B48FDF75BFD06461CE005F058
:10556000E1FE8148008981B28048FFF749FD7E490C
:10557000086800234FF6FF72824908F03BFC04469E
:10558000012C09D19BA17F48FDF742FD05469CA156
:105590007C48FDF73DFD06460DB9002EDFD005F035
:1055A000C1FE05F0CDFE99A16E48FDF743FD6D48A3
:1055B000FDF764FD6C4988600846008981B26B483C
:1055C000FFF71EFD6849086800234FF6FF726D491A
:1055D00008F010FC0446012CB5D18FA16948FDF7F5
:1055E00017FD05468FA16748FDF712FD06461CE032
:1055F00005F098FE5C48008981B25C48FFF700FD29
:105600005949086800234FF6FF725E4908F0F2FB23
:105610000446012C09D180A15A48FDF7F9FC054642
:1056200080A15848FDF7F4FC06460DB9002EDFD0E6
:1056300005F078FE05F084FE7DA14A48FDF7FAFCEE
:105640004848FDF71BFD484988600846008981B23B
:105650004648FFF7D5FC4449086800234FF6FF721F
:10566000484908F0C7FB0446012CB5D105F05AFEA5
:1056700005F066FE71A13B48FDF7DCFC3948FDF7FB
:10568000FDFC394988600846008981B23748FFF738
:10569000B7FC3549086800234FF6FF72394908F016
:1056A000A9FB0446012C97D105F03CFE05F048FE0D
:1056B00066A12C48FDF7BEFC2A48FDF7DFFC2A490D
:1056C00088600846008981B22848FFF799FC26497E
:1056D000086800234FF6FF722A4908F08BFB044646
:1056E000012CC2D128A12748FDF792FC054617E0FE
:1056F00005F018FE1C48008981B21C48FFF780FCA9
:105700001949086800234FF6FF721E4908F072FB22
:105710000446012C04D11CA11A48FDF779FC05466A
:10572000002DE5D005F0FEFD05F00AFE50A10D4864
:10573000FDF780FC0B48FDF7A1FCA1E090010020E3
:10574000454336303020494E495420676574206DFA
:105750007574657821210D0A0000000041540D0A7E
:1057600000000000B8090020F006002044000240BC
:1057700041542053454E44205355434345535321F0
:10578000210D0A009B4000204F4B00004154BBD824
:10579000B8B4C3FCC1EE3A25730D0A00415445303C
:1057A0000D0A000041542B4353510D0A0000000024
:1057B00041542B435351BBD8B8B4C3FCC1EE3A2576
:1057C000730D0A004154490D0A00000041542B4357
:1057D00050494E3F0D0A00002B4350494E3A20528B
:1057E000454144590000000041542B435245473F76
:1057F0000D0A00002B435245473A20302C3100005F
:105800002B435245473A20302C35000041542B435E
:10581000475245473F0D0A002B43475245473A2020
:10582000302C31002B43475245473A20302C35006D
:1058300041542B434F50533F0D0A000041542B510C
:1058400049434C4F53453D300D0A000041542B5104
:1058500049435347503D312C312C22554E494E453A
:1058600054222C22222C22222C300D0A000000006F
:1058700041542B514944454143543D310D0A0000E8
:105880006B4988600846008981B26A48FFF7B8FB17
:105890006749086800234FF6FF72674908F0AAFAC3
:1058A0000446012C79D1AFF220116348FDF7B0FB1B
:1058B000054612E005F036FD5D49086800234FF605
:1058C000FF725D4908F096FA0446012C05D1AFF24B
:1058D00048115948FDF79CFB0546002DEAD005F01C
:1058E00021FD05F02DFD55A15848FDF7A3FB5748B4
:1058F000FDF7C4FB4E4988600846008981B24D48D7
:10590000FFF77EFB4A49086800234FF6FF724A49B9
:1059100008F070FA0446012CC4D1AFF29411464845
:10592000FDF776FB054612E005F0FCFC40490868EF
:1059300000234FF6FF72404908F05CFA0446012C40
:1059400005D1AFF2BC113C48FDF762FB0546002DC6
:10595000EAD039493EA0FDF7EDF805F0E3FC05F08B
:10596000EFFC41A13948FDF765FB3848FDF786FBA0
:105970002F4988600846008981B22E48FFF740FB16
:105980002B49086800234FF6FF722B4908F032FAC2
:105990000446012C43D1284900E040E035A0FDF742
:1059A000C9F805F0BFFC05F0CBFC38A12748FDF78E
:1059B00041FB2648FDF762FB1D49886008460089C7
:1059C00081B21C48FFF71CFB1949086800234FF6F9
:1059D000FF72194908F00EFA0446012C1FD1AFF2EC
:1059E00058211548FDF714FB054612E005F09AFC16
:1059F0000F49086800234FF6FF720F4908F0FAF9C3
:105A00000446012C05D1AFF280210B48FDF700FBC5
:105A10000546002DEAD005F085FC05F091FC2449EF
:105A2000486800231A46194608F024FB70BD0000A0
:105A3000F0060020440002409B40002041542B51BE
:105A4000494143543D310D0A00000000B8090020CF
:105A500041542B5149414354BBD8B8B4C3FCC1EEA7
:105A60003A25730D0A00000041542B51494143541B
:105A70003F0D0A0041542B51494143543FBBD8B814
:105A8000B4C3FCC1EE3A25730D0A000041542B51FA
:105A900049444E534346473D312C223131342E3157
:105AA00031342E3131342E313134220D0A000000D0
:105AB000900100202DE9F84F0546894692469B4605
:105AC00000260027701E00904FF0000800240F20D1
:105AD00007F066F807465A49486800234FF6FF72F8
:105AE000194608F087F9524656A15B48FDF72EF893
:105AF0005948FDF7C3FA594988600846008981B2C0
:105B00005748FFF77DFA5549086800234FF6FF72A2
:105B1000544908F06FF90446012C7FD152A1514835
:105B2000FDF776FA064611E005F0FCFB4B490868E4
:105B300000234FF6FF724B4908F05CF90446012C34
:105B400004D149A14748FDF763FA0646002EEBD081
:105B5000444947A0FCF7EEFF05F0E4FB05F0F0FB3D
:105B60005B4652464946284602F0F6FF2A4647A1C0
:105B70003846FCF7EBFF49493748FDF75BFA3C2113
:105B80004648FDF732FB344945A0FCF7D3FF3248C5
:105B9000FDF774FA314988600846008981B23048BF
:105BA000FFF72EFA2D49086800234FF6FF722D49A2
:105BB00008F020F90446012C30D12A493DA0FCF719
:105BC000B9FF39462748FDF723FA06461DE005F0E0
:105BD000A9FB2249086800236422224908F00AF937
:105BE0000446204939A0FCF7A5FF012C04D1394611
:105BF0001C48FDF70DFA064608F1010000F0FF0809
:105C0000B8F10A0F01D10AE008E0002EDFD0012030
:105C10000090144A294635A0FCF78CFF00BF05F020
:105C200081FB05F08DFB384607F090FB044948687E
:105C300000231A46194608F01DFA0098BDE8F88FAF
:105C40009001002041542B5149444E534749503D47
:105C5000312C25730D0A0000B8090020F006002041
:105C6000440002409B4000202B51495552433A00CA
:105C700041542B5149444E53474950BBD8B8B4C343
:105C8000FCC1EE3A25730D0A000000002B51494F6C
:105C900050454E3A2025642C30000000B406002008
:105CA0002B51494F50454EC3FCC1EE3A25730D0AA6
:105CB00000000000BDA8C1B4BDD3CAD5B5BDB5C4F0
:105CC000CAFDBEDDA3BA25730D0A0000D1ADBBB776
:105CD000C4DABDA8C1B4BDD3CAD5B5BDB5C4CAFD6B
:105CE000BEDDA3BA25730D0A0000000041542B51FC
:105CF000494F50454E3D312C2564BBD8B8B4C3FC48
:105D0000C1EE3A25730D0A0010B500F0CBFD4FF43B
:105D1000FA7005F04DFB4FF480710E4800F0E8FE7C
:105D2000642005F045FB4FF400610A4800F0DEFEF8
:105D3000052005F03DFB4FF40061064800F0D8FE59
:105D40004FF42F7005F034FB4FF40061014800F070
:105D5000CDFE10BD000801402DE9F843044600BF08
:105D600000200090002680464FF47A704443A2B28F
:105D7000384908680023384908F03CF80746012FE5
:105D800064D136A13448FDF743F9061E5ED06B4658
:105D9000364A37A13046FDF741F834482938D0F863
:105DA0002900012808D131492939086800231A46F9
:105DB000194608F05FF91DE02C482938D0F8290071
:105DC00002280DD14FF42F7223492F48FDF7C0F957
:105DD00005F0A8FA21A12C48FDF71AF9064609E0BA
:105DE00022482938D0F8290020B901201F49293933
:105DF00081F891001D482938D0F8291023A0FCF71C
:105E000099FE1E2006F0CCFE80461E214046FDF77E
:105E1000ECF916482938D0F8292015A14046009BF6
:105E2000FCF794FE4046FDF729F906440F4829384F
:105E3000D0F82900022806D0002501E0681CC5B270
:105E400000988542FADB404607F080FA3046BDE80C
:105E5000F8830000F00600209B4000202B5149559C
:105E600052433A202272656376222C00B901002049
:105E70002B51495552433A202272656376222C25D4
:105E8000642C25640D0A0000BB4300202D2D2D2D10
:105E90002D2D2D2D2D2D2D2D2D2D2D2D2D2D2D2D32
:105EA0002DCAD5B5BD534F4B45542564BBD8B8B4A6
:105EB000A3A1A3A12D2D2D2D2D2D2D2D2D2D2D2D3E
:105EC0002D2D2D2D2D2D2D0D0A0000002DE9F04733
:105ED00081468A4614460026B04623464A4657A1C4
:105EE0005B48FCF733FE5A48FDF7C8F8594988600B
:105EF0000846008981B25848FFF782F8554908687A
:105F000000234FF6FF72554907F074FF0646012E35
:105F10007ED153A15148FDF77BF805461FE0B8F14B
:105F20001E0F06D105F0FEF905F00AFA0020BDE8C3
:105F3000F08708F1010000F0FF0805F0F3F945498A
:105F4000086800234FF6FF72444907F053FF0646E6
:105F5000012E04D142A14148FDF75AF80546002D13
:105F6000DDD04FF0000805F0DDF905F0E9F9224633
:105F700051463748FDF7ECF80020CAF80000B9F1A7
:105F8000020F10D037A0FCF7D5FD002706E03048FF
:105F9000C15D38A0FCF7CEFD781CC7B2A742F6DB86
:105FA00036A0FCF7C7FD2B488460008981B22A48DF
:105FB000FFF726F82749086800234FF6FF722749A4
:105FC00007F018FF0646012E32D12DA12348FDF718
:105FD0001FF8054620E0B8F11E0F05D105F0A2F923
:105FE00005F0AEF90020A2E708F1010000F0FF087B
:105FF00005F098F91749086800234FF6FF72174912
:1060000007F0F8FE0646012E06D11DA1134800E058
:106010000EE0FCF7FDFF0546002DDCD005F082F90F
:1060200005F08EF918A0FCF785FD0A4880687EE728
:1060300005F078F905F084F9002078E741542B51F8
:106040004953454E443D25642C25640D0A0000004B
:10605000B8090020F0060020440002409B400020C8
:106060003E0000004543363030B7A2CBCDCAFDBE5E
:10607000DDA3BA0025303258000000000D0A0000F0
:1060800053454E44204F4B003447B7A2CBCDB1B659
:10609000B6F97E7EB3C9B9A6A3A10D0A000000001F
:1060A00070B505464FF400710020FEF7A7FC2846A6
:1060B000FEF7C8FC0446552C6DD150A0FCF73AFD04
:1060C000012258492A20FEF7ACFC56482A3890F89D
:1060D0002A00012826D154A0FCF72CFD00205149AC
:1060E0002A3981F82A00012200212A20FEF7DDFC4E
:1060F00054A14C482A38FCF79DFF55A14948203847
:10610000FCF798FF41F6DC6046492A3908850020F3
:106110005549C860002154480162416353A0FCF70F
:1061200009FD26E057A0FCF705FD0A223D492A3962
:106130000020FEF776FC1E223A4920390A20FEF79D
:1061400070FC02223749891E2820FEF76AFC0422CF
:1061500045490C312B20FEF764FC042242492031D2
:106160002F20FEF75EFC04223F4934313320FEF736
:1061700058FC2C492A394AA0FCF7DCFC2949203973
:106180004CA0FCF7D7FC27482A38018D4DA0FCF71E
:10619000D1FC002070BD4FA0FCF7CCFC0A222149A5
:1061A0002A390020FEF781FC14221E4920390A20DA
:1061B000FEF77BFC02221B49891E2820FEF775FC96
:1061C00055212846FEF783FC2846FEF73BFC044693
:1061D000552C11D113492A3931A0FCF7ABFC1149D8
:1061E000203934A0FCF7A6FC0E482A38018D35A0D2
:1061F000FCF7A0FC0020CDE70120CBE7454550523D
:106200004F4DD3D0CAFDBEDDA3ACB6C1C8A1B5BD4C
:10621000C5E4D6C3B1E4C1BFC0EF2E2E2E2E2E2E64
:106220000D0A00001201002021212121212121211C
:1062300021D3D0B8B4CEBBB1EAD6BECEBBA3A1A306
:10624000A100000030303030313333330000000023
:10625000736D617274706F6C652E626574686C61C9
:1062600062732E636F6D000040060020BBD6B8B489
:10627000B3F6B3A7C9E8D6C3CDEAB3C9A3A10D0A43
:10628000000000007E7E7E7E7E7E7E7EC3BBD3D0FD
:10629000B8B4CEBBB1EAD6BECEBBA3A1A3A10000C9
:1062A000436F6E74726F6C6C657249443A25730D5E
:1062B0000A00000053657276657249503A25730DE5
:1062C0000A000000536572766572506F72743A2549
:1062D000640D0A00454550524F4DBFD5A3A10D0A8C
:1062E0000000000010B54FF4805000F06FF8A0B12E
:1062F0000A4890F8440040F00400084981F844003E
:10630000084690F8441006A0FCF714FC0020104941
:1063100008604FF4805000F053F810BD4006002094
:106320002A2A2A2A2A2A2A2A77616962757A686FB4
:106330006E676475616E2A2A2A2A2A2A2A2A2A6303
:10634000685374617475733A25640D0A0000000087
:10635000BC8121421FB50121042002F0F9FC4FF459
:106360008050ADF8000048208DF8030069461348BE
:1063700000F0E8FA0121084602F0EAFC0C210020B6
:1063800000F0C0FA4FF48050029000208DF80C000D
:106390000C208DF80D0001208DF80E0002A800F0F1
:1063A00029F828208DF8040004208DF8050001202C
:1063B0008DF8070001A801F06DFF1FBD0008014026
:1063C00001490860704700001404014001460020A4
:1063D0000022074B1B6803EA0102054B14331B68BC
:1063E0000B4013B10AB1012000E00020704700000B
:1063F00000040140002123498279002A3AD00A464C
:10640000126803689A430B461A600A1D12680368F3
:106410009A430B1D1A60027911440A6803681A43F3
:106420000A60184A0832126803689A43154B083309
:106430001A601A1D126803689A43124B0C331A60D3
:106440004279102A0ED11A1F126803681A430D4BA5
:1064500008331A601A1D126803681A43094B0C337B
:106460001A600DE00749427911440A6803681A432B
:106470000A6005E0027911440A6803689A430A60D9
:1064800070470000000401400EB5C9E065A0FCF7AC
:1064900051FB00F005FD00F0F9FB642190FBF1F4E5
:1064A000204609F0B7F96749C86367480088401C6F
:1064B00065490880084600880A2190FBF1F201FB3B
:1064C000120000287ED15F49086809F053F804469D
:1064D00022460B465DA0FCF72DFB5A49486809F09F
:1064E00049F8044622460B465DA0FCF723FB5549BC
:1064F000886809F03FF8044622460B465DA0FCF789
:1065000019FB5049C86809F035F8044622460B4685
:106510005DA0FCF70FFB4B49086909F02BF8044616
:1065200022460B465DA0FCF705FB4649486909F089
:1065300021F8044622460B465DA0FCF7FBFA4149D0
:10654000886909F017F8044622460B465EA0FCF75E
:10655000F1FA3C49C86909F00DF8044622460B4699
:106560005FA0FCF7E7FA3749086A09F003F8044628
:1065700022460B465FA0FCF7DDFA3249886A08F034
:10658000F9FF044622460B4660A0FCF7D3FA2D49DA
:10659000C86A08F0EFFF044622460B4661A0FCF7EC
:1065A000C9FA2849086B08F0E5FF044622460B4665
:1065B00062A0FCF7BFFA2349486B08F0DBFF0446F2
:1065C000224600E015E00B4661A0FCF7B3FA02F0AA
:1065D00085FD6548807864494978634A1278CDE939
:1065E000002102906048C379827981885FA0FCF71E
:1065F000A1FA154800884FF4966190FBF1F201FB77
:10660000120038B9002010490880604988681021BC
:1066100007F0C8FA01F0F8F84FF47A7006F08EFF30
:1066200034E70000456C6563747269637061726180
:106630006D5F7461736B2072756E6E696E670D0AA3
:106640000000000040060020720000203232305F5F
:10665000494E5F566F6C746167653A25660D0A0096
:106660003232305F494E5F43757272656E743A25FF
:10667000660D0A003232305F494E5F506F776572A7
:106680003A25660D0A0000003232305F494E5F4500
:106690006E657267793A25660D0A00003232305F06
:1066A000494E5F666163746F723A25660D0A000099
:1066B0003232305F4F5554315F566F6C746167658D
:1066C0003A25660D0A0000003232305F4F555431D2
:1066D0005F43757272656E743A25660D0A0000009C
:1066E0003232305F4F5554315F506F7765723A25C3
:1066F000660D0A003232305F4F5554315F456E658A
:106700007267793A25660D0A000000003232305F68
:106710004F5554325F566F6C746167653A25660D4C
:106720000A0000003232305F4F5554325F437572B9
:1067300072656E743A25660D0A0000003232305FD1
:106740004F5554325F506F7765723A25660D0A00D7
:106750003232305F4F5554325F456E657267793A19
:1067600025660D0A00000000360200204E6F7720DB
:1067700054696D653A25642D25642D2564202564B2
:106780003A25643A25640D0A0000000090010020BB
:1067900030B5044604254FF4302000F06FF805466C
:1067A000042D17D10C48006940F002000A49086125
:1067B00008464461006940F0400008614FF4302011
:1067C00000F05CF805460448006941F6FD71084098
:1067D00001490861284630BD0020024004200B49D1
:1067E000C96801F0010109B101200EE00749C9683B
:1067F00001F0040109B1022007E00449C96801F071
:10680000100109B1032000E004207047002002407D
:106810000348006940F080000149086170470000AA
:106820000020024070B504460D460426F00200F038
:1068300025F80646042E11D10948006940F00100F0
:10684000074908612580F00200F018F80646044860
:10685000006941F6FE71084001490861304670BD8B
:1068600000200240024803494860034848607047DE
:106870002301674500200240AB89EFCD00B50246F9
:106880000423FFF7ABFF034603E0FFF7A7FF034630
:10689000521E012B01D1002AF7D102B90523184657
:1068A00000BD000008B50121042002F051FA0121C9
:1068B000102002F04DFA4FF41060ADF800001020E7
:1068C0008DF8030003208DF8020069460B4800F0A4
:1068D00039F84FF40050ADF8000014208DF8030093
:1068E00003208DF802006946054800F02BF84FF4AC
:1068F0001061024800F0FAF808BD000000080140ED
:106900000010014030B500228B071C0F0F2303FA43
:1069100004F20B4B8C1053F824309343084C8D1029
:1069200044F8253023468C1053F824308C07240F6C
:1069300000FA04F42343024C8D1044F8253030BD96
:10694000080001402DE9F041024600250026002004
:1069500000230024002791F803C00CF00F0591F8E4
:1069600003C00CF0100CBCF1000F03D091F802C072
:106970004CEA050591F800C0BCF1000F31D0146855
:1069800000202BE04FF0010C0CFA00F3B1F800C02E
:106990000CEA03069E4220D183004FF00F0C0CFA44
:1069A00003F7BC4305FA03FC4CEA040491F803C066
:1069B000BCF1280F06D14FF0010C0CFA00FCC2F814
:1069C00014C00AE091F803C0BCF1480F05D14FF0A4
:1069D000010C0CFA00FCC2F810C0401C0828D1D3EE
:1069E0001460B1F800C0BCF1FF0F34DD5468002022
:1069F0002EE000F1080C4FF0010808FA0CF3B1F892
:106A000000C00CEA03069E4221D183004FF00F0C18
:106A10000CFA03F7BC4305FA03FC4CEA040491F8B2
:106A200003C0BCF1280F05D100F1080C08FA0CF8DE
:106A3000C2F8148091F803C0BCF1480F07D100F1EF
:106A4000080C4FF0010808FA0CF8C2F81080401C3E
:106A50000828CED35460BDE8F0810000F0B50A46A6
:106A6000002300240021002500F00046B6F1004F6D
:106A700002D11D4EF16901E01B4E7168C0F3034560
:106A800083B200F44016B6F5401F08D121F07061C2
:106A9000154E766826F07066134F7E6012E000F4A3
:106AA0008016B6F5801F06D1032606FA05F4A14329
:106AB00041F0706106E0460D360103FA06F6B14377
:106AC00041F0706122B1460D360103FA06F63143FA
:106AD00000F00046B6F1004F02D1034EF16101E033
:106AE000014E7160F0BD000000000140416170473F
:106AF000016170472DE9FF5F0C4615461E464FF0B9
:106B00000009009808F09EFE8146204608F09AFE93
:106B10000746494608F0AAFE814666B9484608F08D
:106B200029FD074600224FF0804308F005FB82460E
:106B300008F058F88146484608F01CFD82460022BD
:106B4000134B08F035F9074608F04CF881464846E3
:106B500008F010FD074600220E4B08F029F9824686
:106B600008F040F881462946484608F091FD8146E4
:106B7000484608F0FFFC07460022074B08F0DCFA05
:106B8000824608F02FF88146484604B0BDE8F09FE1
:106B90000000244000408F400000F03F2DE9FF4FEF
:106BA00083B00C4615461E464FF00009039808F0C6
:106BB00049FE8146204608F045FE0746494608F052
:106BC00055FE814666B9484608F0D4FC824600224C
:106BD0004FF0804308F0B0FA074608F003F881460A
:106BE0002946484608F054FD8146484608F0C2FC54
:106BF00007460022144B08F09FFA82460022134BEE
:106C000008F0D6F8CDE9000107F0ECFF81464846D0
:106C100008F0B0FC824600220D4B08F0C9F8074688
:106C200007F0E0FF8146484608F0A4FC0746002232
:106C3000084B08F081FA824607F0D4FF81464846A7
:106C400007B0BDE8F08F00000000104000002040B9
:106C5000000024400000F03F0EB50020009001909D
:106C600002900848006800900648001D00680190E6
:106C700004480830006802900C226946024800F07F
:106C80002BFC0EBDE8F7FF1FA00100202DE9F05FEF
:106C90001421102003F0CAF98346584608F0D2FDAB
:106CA000804608F067FC06464FF06632124B08F04B
:106CB00043FA04460D4622462B461048104908F078
:106CC0006FFB80460F4A104B08F072F80646002210
:106CD0000E4B07F0B9FF04460D4600220C4B204630
:106CE000294608F029FA064608F0BAF90FFA80FAA0
:106CF0001FFA8AF0BDE8F09F66664A3FE17A14AE5B
:106D000047E1F63F22FDF675E09C713F00003940F7
:106D10000000594008B50121082002F019F80320AD
:106D2000ADF8000010208DF8030003208DF802005C
:106D300069460448FFF706FE03210248FFF7D6FE26
:106D400008BD0000000C0140012802D002280FD12C
:106D500006E00021074A1160074AC2F8841107E0E3
:106D60000121044A11600021034AC2F8841100BFC6
:106D700000BF7047808121420080214210B5702001
:106D800000F024F919490880032004F011FB712058
:106D900000F01CF916490880032004F009FB72205A
:106DA00000F014F913490880032004F001FB73205C
:106DB00000F00CF910490880032004F0F9FA74205F
:106DC00000F004F90D490880032004F0F1FA762060
:106DD00000F0FCF80A490880032004F0E9FA772063
:106DE00000F0F4F80749088010BD000060000020A2
:106DF000620000206400002066000020680000207F
:106E00006C0000206E00002010B50446012C02D05A
:106E1000022C14D106E0FFF7B1FF2146094800F02B
:106E200013F80CE0FFF7AAFF21460648143000F0E3
:106E30000BF821460348283000F01CF800BF00BFC3
:106E400010BD00004006002070B504460D4600F05D
:106E50003BFA2060284600F0D7F86060284600F032
:106E6000FBF9A060284600F013F9A06800F0C2F911
:106E7000206170BD70B504460D4600F025FA206013
:106E8000284600F0E3F86060284600F001FAA060B0
:106E9000284600F05DF9A06800F0ACF9206170BDF3
:106EA00010B50120FFF750FF0A2004F081FA0120FD
:106EB000FFF7AAFF322004F07BFA0220FFF744FF1D
:106EC0000A2004F075FA0220FFF79EFF10BD0000B3
:106ED00010B502460B460020002105E0074C645C1B
:106EE0000444E0B24C1CE1B29942F7DB00F1A50486
:106EF0001444E0B2C443E0B210BD000022020020FE
:106F000010B50446A521044803F0E7F921460248DC
:106F100003F0E3F910BD0000004400402DE9F84300
:106F200004460E4690460027A521184803F0D5F9DF
:106F3000EA2C08D044F08004300A8DF80000F0B24A
:106F40008DF8010002E0F0B28DF8000021460F48F4
:106F500003F0C3F900250AE01DF805100B4803F003
:106F6000BCF91DF805003844C7B2681CC5B24545D8
:106F7000F2DB07F1A5002044C7B2F843C7B2394697
:106F8000024803F0AAF9BDE8F8830000004400407D
:106F900010B5FFF7BFFE0120FFF7D6FE4FF4FA70E1
:106FA00004F006FA012000F05DFC142004F000FA61
:106FB0000220FFF7C9FE642004F0FAF9022000F075
:106FC00051FC142004F0F4F910BD000070B5054622
:106FD0002846FFF795FF0A2004F0EAF90221284627
:106FE000FFF776FF06498978884204D10448417842
:106FF000007801EB0024002002490880A0B270BD97
:10700000220200204C0000202DE9F0410446002619
:1070100000250321242000F0B5F9054605F4000001
:10702000B0F5000F00D10CE0274604EBD770C0F399
:1070300047034FF09642044801882846FFF75AFD5F
:1070400006463046BDE8F081600000202DE9F041A1
:107050000446002600250321252000F093F905466B
:1070600005F40000B0F5000F00D10CE0274604EB5A
:10707000D770C0F347034FF0964204480188284672
:10708000FFF738FD06463046BDE8F081620000207B
:107090002DE9F04704460026B146002503212820AB
:1070A00000F070F90646274604EBD770C0F347039B
:1070B0004FF09C42224801883046FFF76FFD05469D
:1070C000284608F057FA07461E4A1F4B08F032F9C7
:1070D00034D80122E521EA20FFF720FF022240F602
:1070E000E5011320FFF71AFF0321282000F04AF9D9
:1070F0000321282000F046F98146022240F6E541AE
:107100001320FFF70BFF0122DC21EA20FFF706FF27
:10711000012C02D0022C10D107E00C49C868294686
:1071200008F054FA0949C86007E00849086A294686
:1071300008F04CFA0549086200BF00BFBDE8F087BF
:107140006C0000207B14AE47E17A843F40060020AB
:107150002DE9F04704460026B146002503212920E9
:1071600000F010F90646274604EBD770C0F347033A
:107170004FF09C421B4801883046FFF70FFD054643
:10718000284608F0F7F90746174A184B08F0D2F8D6
:1071900026D80122E521EA20FFF7C0FE022240F2B4
:1071A00081411320FFF7BAFE0321292000F0EAF8FD
:1071B0000321292000F0E6F88146022240F68141B1
:1071C0001320FFF7ABFE0122DC21EA20FFF7A6FE29
:1071D0000749486B294608F0F9F90146044841631C
:1071E000BDE8F0876E0000207B14AE47E17A843F53
:1071F000400600202DE9F04180460321272000F0C1
:10720000C1F80546B5F5000F0BD96FF07F41491B5A
:10721000481C08F017FB06460D4908F039FA0446E9
:1072200007E0284608F00EFB0646094908F030FA48
:107230000446404608F09EF906464FF03332054BAF
:1072400007F03EFF00D200242046BDE8F081000098
:10725000FEFFFF4A3333D33F70B5044600250421B7
:107260002C2000F08FF80546B5F1004F00D9ED4312
:10727000264604EBD670C0F347034FF09E42034806
:1072800001882846FFF78AFC70BD000066000020D8
:1072900070B50446002504212D2000F073F8054642
:1072A000B5F1004F00D9ED43264604EBD670C0F38C
:1072B00047034FF09E42034801882846FFF76EFCC3
:1072C00070BD0000680000202DE9F0470024A146B1
:1072D0000321262000F056F8814609F40000B0F59D
:1072E000000F00D141E0484608F0ACFA04462048BF
:1072F000008808F0A7FA0546214608F0B7FA0446C8
:10730000204608F037F9074600221A4B07F050FDD7
:10731000054607F067FC04464FF08141204608F01F
:10732000A5FA824608F026F905460022124B07F01E
:107330003FFD074607F056FC0446204608F01AF9C0
:10734000074600220D4B07F033FD054607F04AFCC7
:107350000446204608F00EF905460022084B07F0C7
:10736000EBFE074607F03EFC04462046BDE8F087EA
:1073700064000020000050410000204000005940FF
:107380000000F03F2DE9F04106460C46002700259D
:1073900000BF00201B4908803046FFF7B1FD0A20DE
:1073A00004F006F821463046FFF792FD1649095DC4
:1073B00088421BD1032C0AD11348007801041248DB
:1073C000407801EB002010498978471813E00E48F7
:1073D000007801060C48407801EB00410A488078AB
:1073E00001EB00200849C978471804E0681CC5B2C1
:1073F000052D00DACDE70020024908803846BDE8B7
:10740000F08100004C0000202202002000BFFEE7B7
:107410003EB500200290002402F0B0F802906420F3
:1074200005F0BEFB044664212046FBF7DEFE1F4943
:10743000486800234FF6FF72194606F0DBFC02A8ED
:1074400000211B4B4FF49852CDE900100521204636
:1074500001F0D6FB154A10323121204601F0A0FB85
:10746000204601F0BBFBB4F80500FBF7D7FA0D305E
:107470001049C1F80D000846B0F80D0082B221464F
:107480000020FEF723FD0CA0FBF754FB01F0A6FE45
:1074900008494860204605F059FF04494868002320
:1074A0001A46194606F0E6FD3EBD00009001002098
:1074B000E80000208A400020A3A4A3A4A3A4A3A4BE
:1074C000A3A4D0C4CCF8B0FCB7A2CBCDB3C9B9A6A5
:1074D000A3A10D0A00000000F0B503460C461546B6
:1074E000002028E0265C3111265C06F00F020A29F4
:1074F00004DA01F1300603F8106007E00A2905DB21
:107500000F2903DC01F1370603F810600A2A06DAB6
:1075100002F13006F7B24600761C9F5509E00A2AB0
:1075200007DB0F2A05DC02F13706F7B24600761CAE
:107530009F55461CF0B2A842D4D3002603F815602C
:10754000F0BD000010B500200F4908600F4800682A
:1075500020F070400D4908600846006840F0405037
:10756000086000200A49C1F89C01022003F042FF94
:10757000012005490860022003F03CFF0020044977
:10758000C1F8980110BD000098812142000C014013
:107590000080214208B50121082001F0D9FBC0205C
:1075A000ADF8000010208DF8030003208DF80200D4
:1075B00069460448FFF7C6F9C0210248FFF798FA68
:1075C00008BD0000000C014010B500200F49086004
:1075D0000F48006820F070400D49086008460068B8
:1075E00040F04050086001200A49C1F89C01022087
:1075F00003F000FF012005490860022003F0FAFEB5
:1076000000200449C1F8980110BD00009881214272
:10761000000C01400080214270B505460024174847
:10762000006820F07040154908600846006840F086
:1076300000400860002616E0002011490860022082
:1076400003F0D8FE01200F49C1F898016006040E2E
:107650000B487C38006808B1601CC4B2012003F0FC
:10766000C9FE701CC6B2082EE6DB15B9FFF7ACFFE9
:1076700001E0FFF767FF204670BD0000000C0140ED
:10768000988121420080214270B504461848006864
:1076900020F07040164908600846006840F04050ED
:1076A000086000201349086000251EE0E00920B1B1
:1076B00001201049091D086003E000200D49091D43
:1076C00008606006040E022003F094FE01200949C0
:1076D0000860022003F08EFE00200749C1F89801DF
:1076E000022003F087FE681CC5B2082DDEDB70BDEA
:1076F000000C0140988121420080214210B50F48C2
:10770000006820F070400D4908600846006840F0AD
:107710004050086001200A4908600A49C1F89801F0
:10772000042003F067FE002005490860042003F0F0
:1077300061FE00200349C1F8980110BD000C014012
:107740009C8121420080214210B50F48006820F042
:1077500070400D4908600846006840F040500860DD
:1077600000200A4908600A49C1F89C01042003F07E
:1077700041FE0120054908600549C1F89C0104202B
:1077800003F038FE10BD0000000C0140988121423A
:107790000080214210B500241448006820F0704099
:1077A000124908600846006840F000400860012067
:1077B0000F49086003F01EFE01200E49C1F8980130
:1077C00003F018FE07E0601CC4B2FA2C03DDFFF7DB
:1077D000BBFF012010BD0648803800680028F2D1A8
:1077E0000349091F086000BFF4E70000000C0140D6
:1077F0009C812142008021424CF6CC400149086026
:10780000704700000030004010B500F011F810BDC6
:1078100070B505460C4645F2555000F01DF8284657
:1078200000F00EF8204600F011F800F001F870BDED
:107830004AF6AA2001490860704700000030004065
:1078400001494860704700000030004001498860ED
:107850007047000000300040014908607047000098
:107860000030004010B50446012C2CD10122E52146
:10787000EA20FFF753FB01225A21EA20FFF74EFBD3
:10788000022251034020FFF749FB022243F29921D3
:107890001D20FFF743FB022240F6E5411320FFF7CE
:1078A0003DFB022241F283110120FFF737FB022248
:1078B00040F61B310020FFF731FB0122DC21EA20DA
:1078C000FFF72CFB2DE0022C2BD10122E521EA2031
:1078D000FFF724FB01225A21EA20FFF71FFB0222B7
:1078E00051034020FFF71AFB022243F299211D2089
:1078F000FFF714FB022240F681411320FFF70EFB35
:10790000022241F283110120FFF708FB022240F618
:107910001C710020FFF702FB0122DC21EA20FFF7A7
:10792000FDFA10BD30B50246002300200BE00C88A4
:10793000012585402C402CB1C0F10F050124AC403D
:107940001C43A3B2401C1028F1DB138030BD30B5BE
:107950000246002300200BE00C78012585402C40D6
:107960002CB1C0F107050124AC401C43E3B2401C1C
:107970000828F1DB137030BD0146CA1701EB927283
:107980009210A1EB820292B9642091FBF0F200FB0D
:10799000121050B94FF4C87091FBF0F200FB1210B6
:1079A00008B9012070470020FCE70120FAE7002019
:1079B000F8E7000008B50121082001F0C9F94FF4EB
:1079C0007040ADF8000010208DF8030003208DF802
:1079D000020069460448FEF7B5FF4FF470410248C3
:1079E000FFF786F808BD0000000C014070B50546A1
:1079F0000C46012D30D114B1012C2CD115E04FF4DF
:107A000000712D48FFF774F8322003F0D1FC4FF4D9
:107A100000712948FFF76AF8284890F8440020F0E0
:107A20000100264981F8440015E04FF48071224896
:107A3000FFF75EF8322003F0BBFC4FF480711E4864
:107A4000FFF754F81D4890F8440040F001001B492E
:107A500081F8440000BF2EE0022D2CD114B1012C7E
:107A600028D113E001211648FFF742F8322003F035
:107A70009FFC01211248FFF739F8104890F84400A4
:107A800020F002000D4981F8440013E002210C4867
:107A9000FFF72EF8322003F08BFC02210848FFF795
:107AA00025F8064890F8440040F00200034981F8A8
:107AB000440000BF00BF70BD000C01404006002024
:107AC000000801402DE9FF4F81B00F4690469946CE
:107AD000DDF83CA0002400255046FBF7CFFA00F16A
:107AE000260B1098FBF7CAFA83441198FBF7C6FAE5
:107AF00083441298FBF7C2FA83441398FBF7BEFA4B
:107B000083441498FBF7BAFA83441598FBF7B6FA46
:107B100083441698FBF7B2FA83441798FBF7AEFA42
:107B200083441898FBF7AAFA83441998FBF7A6FA3E
:107B300083441A98FBF7A2FA83441B98FBF79EFA3A
:107B4000584485B2284605F02BF8044629462046BD
:107B5000FBF74BFB0520E41C04F8030C38BA44F88F
:107B6000020CA5F10D0188B2FAF758FF608040467B
:107B7000FAF754FF608199FA89F0E0600E9800BA34
:107B800020612420FAF74AFFA082E41E514604F146
:107B90001900FBF74FFA5046FBF770FA04F11A018F
:107BA00000EB010B58461099FBF744FA5046FBF7DF
:107BB00065FA04F11B0100EB010B1098FBF75EFA6C
:107BC000584400901199FBF735FA5046FBF756FAE6
:107BD00004F11C0100EB010B1098FBF74FFA8344F2
:107BE0001198FBF74BFA584400901299FBF722FAD0
:107BF0005046FBF743FA04F11D0100EB010B10980E
:107C0000FBF73CFA83441198FBF738FA8344129847
:107C1000FBF734FA584400901399FBF70BFA5046DF
:107C2000FBF72CFA04F11E0100EB010B1098FBF797
:107C300025FA83441198FBF721FA83441298FBF745
:107C40001DFA83441398FBF719FA584400901499CD
:107C5000FBF7F0F95046FBF711FA04F11F0100EBB6
:107C6000010B1098FBF70AFA83441198FBF706FA08
:107C700083441298FBF702FA83441398FBF7FEF94A
:107C800083441498FBF7FAF9584400901599FBF7D0
:107C9000D1F95046FBF7F2F904F1200100EB010B9A
:107CA0001098FBF7EBF983441198FBF7E7F983444D
:107CB0001298FBF7E3F983441398FBF7DFF9834449
:107CC0001498FBF7DBF983441598FBF7D7F9584470
:107CD00000901699FBF7AEF95046FBF7CFF904F187
:107CE000210100EB010B1098FBF7C8F983441198B0
:107CF000FBF7C4F983441298FBF7C0F98344139847
:107D0000FBF7BCF983441498FBF7B8F98344159842
:107D1000FBF7B4F983441698FBF7B0F95844009088
:107D20001799FBF787F95046FBF7A8F904F12201F0
:107D300000EB010B1098FBF7A1F983441198FBF7B6
:107D40009DF983441298FBF799F983441398FBF744
:107D500095F983441498FBF791F983441598FBF740
:107D60008DF983441698FBF789F983441798FBF73C
:107D700085F9584400901899FBF75CF95046FBF7D9
:107D80007DF904F1230100EB010B1098FBF776F964
:107D900083441198FBF772F983441298FBF76EF94C
:107DA00083441398FBF76AF983441498FBF766F948
:107DB00083441598FBF762F983441698FBF75EF944
:107DC00083441798FBF75AF983441898FBF756F940
:107DD000584400901999FBF72DF95046FBF74EF9DE
:107DE00004F1240100EB010B1098FBF747F98344E1
:107DF0001198FBF743F983441298FBF73FF983444A
:107E00001398FBF73BF983441498FBF737F9834445
:107E10001598FBF733F983441698FBF72FF9834441
:107E20001798FBF72BF983441898FBF727F983443D
:107E30001998FBF723F9584400901A99FBF7FAF8C0
:107E40005046FBF71BF904F1250100EB010B1098DC
:107E5000FBF714F983441198FBF710F98344129847
:107E6000FBF70CF983441398FBF708F98344149843
:107E7000FBF704F983441598FBF700F9834416983F
:107E8000FBF7FCF883441798FBF7F8F8834418983D
:107E9000FBF7F4F883441998FBF7F0F883441A9839
:107EA000FBF7ECF8584400901B99FBF7C3F8A5F1D9
:107EB0000D0104F10D00FCF73DFFA4F80B00E2A05A
:107EC000FAF738FE04F11901E4A0FAF733FE504640
:107ED000FBF7D4F804F11A0100EB010B5946DFA0BF
:107EE000FAF728FE5046FBF7C9F804F11B0100EB36
:107EF000010B1098FBF7C2F8584401460090D7A038
:107F0000FAF718FE5046FBF7B9F804F11C0100EB34
:107F1000010B1098FBF7B2F883441198FBF7AEF809
:107F2000584401460090CDA0FAF704FE5046FBF7F6
:107F3000A5F804F11D0100EB010B1098FBF79EF86A
:107F400083441198FBF79AF883441298FBF796F84C
:107F5000584401460090C1A0FAF7ECFD5046FBF7EB
:107F60008DF804F11E0100EB010B1098FBF786F869
:107F700083441198FBF782F883441298FBF77EF84C
:107F800083441398FBF77AF8584401460090B3A055
:107F9000FAF7D0FD5046FBF771F804F11F0100EB32
:107FA000010B1098FBF76AF883441198FBF766F809
:107FB00083441298FBF762F883441398FBF75EF84A
:107FC00083441498FBF75AF8584401460090A3A044
:107FD000FAF7B0FD5046FBF751F804F1200100EB31
:107FE000010B1098FBF74AF883441198FBF746F809
:107FF00083441298FBF742F883441398FBF73EF84A
:1080000083441498FBF73AF883441598FBF736F845
:1080100058440146009091A0FAF78CFD5046FBF7BA
:108020002DF804F1210100EB010B1098FBF726F865
:1080300083441198FBF722F883441298FBF71EF84B
:1080400083441398FBF71AF883441498FBF716F847
:1080500083441598FBF712F883441698FBF70EF843
:108060005844014600907DA0FAF764FD5046FBF7A6
:1080700005F804F1220100EB010B1098FAF7FEFF5E
:1080800083441198FAF7FAFF83441298FAF7F6FF3F
:1080900083441398FAF7F2FF83441498FAF7EEFF3B
:1080A00083441598FAF7EAFF83441698FAF7E6FF37
:1080B00083441798FAF7E2FF58440146009067A0FE
:1080C000FAF738FD5046FAF7D9FF04F1230100EB27
:1080D000010B1098FAF7D2FF83441198FAF7CEFFFC
:1080E00083441298FAF7CAFF83441398FAF7C6FF3D
:1080F00083441498FAF7C2FF83441598FAF7BEFF39
:1081000083441698FAF7BAFF83441798FAF7B6FF34
:1081100083441898FAF7B2FF5844014600904FA0E4
:10812000FAF708FD5046FAF7A9FF04F1240100EB25
:10813000010B1098FAF7A2FF83441198FAF79EFFFB
:1081400083441298FAF79AFF83441398FAF796FF3C
:1081500083441498FAF792FF83441598FAF78EFF38
:1081600083441698FAF78AFF83441798FAF786FF34
:1081700083441898FAF782FF83441998FAF77EFF30
:1081800058440146009035A0FAF7D4FC5046FAF75F
:1081900075FF04F1250100EB010B1098FAF76EFF53
:1081A00083441198FAF76AFF83441298FAF766FF3E
:1081B00083441398FAF762FF83441498FAF75EFF3A
:1081C00083441598FAF75AFF83441698FAF756FF36
:1081D00083441798FAF752FF83441898FAF74EFF32
:1081E00083441998FAF74AFF83441A98FAF746FF2E
:1081F0005844014600901AA0FAF79CFC2A462146F2
:108200000198FDF763FE18A0FAF794FC002605E03C
:10821000A15D19A0FAF78EFC701CC6B2AE42F7DB66
:1082200017A0FAF787FC174890F8440020F00400E4
:10823000144981F84400012013490860204605F0E4
:1082400085F805B0BDE8F08FB5C6D7B4CCACB2E9BF
:10825000D1AFBBD8B8B4A3BA0000000025737C002E
:1082600025737C0D0A000000B2E9D1AFB5C4B2CECF
:10827000CAFDD6B5A3BA0000253032587C000000F4
:108280000D0A000040060020BC81214200BFFEE72D
:108290007047000070B5002100230F22C47804B39A
:1082A000154C246804F4E064C4F5E064210AC1F1CB
:1082B0000403CA40447804FA03F18478144021434B
:1082C00009010E4C0678A155047804F01F0501241D
:1082D000AC4005786D11AD0005F1E025C5F8004111
